:020000020000FC
:0200000046C0F8
:10008C001FC0E0E0F8E20EE0019306E101930AE103
:10009C0001930CE10193409A48980EE108B90FEFD7
:1000AC00009300040FEF01B98098009190040B604D
:1000BC0000939004789488D0000000003DD0FCCFD1
:1000CC00F8940FB70F9302B30170003051F0DDD0EC
:1000DC00909BFDCF0F910FBF01E0009389047894A2
:1000EC001895D3D09099FDCF87D0F1CF0F910FBF3A
:1000FC0001E000938904789418950F9300910728D8
:10010C000154009307280F9108950F93009107282D
:10011C0001540093072800910628015400930628E7
:10012C0000910528015400930528009104280154DE
:10013C00009304280F9108954F933F933FB73F933B
:10014C002F931F930F93EF93FF933091032839B99B
:10015C00EEEBF2E010E020910728E20FF11F049182
:10016C00009304048DD03091022839B9EEEBF2E003
:10017C0020910628E20FF11F04910093040480D013
:10018C003091012839B9EEEBF2E020910528E20F0D
:10019C00F11F04910093040473D03091002839B9F5
:1001AC00EEEBF2E020910428E20FF11F0491009392
:1001BC00040466D0FF91EF910F911F912F913F9105
:1001CC003FBF3F914F910895E8EDF2E000E01591AB
:1001DC0003951F32E1F70A950093082804E0009379
:1001EC000928E8EDF2E0C4E0D8E214E005910993A7
:1001FC001A95E1F78ADF0895F894EF93FF93CF9364
:10020C00DF933F932F931F930F930FB70F93E8ED4B
:10021C00F2E02091092810E0E20FF11FC4E0D8E2CF
:10022C0013E0098109931A95E1F720910828309180
:10023C000928321790F433953093092805910883D7
:10024C005CDF0F910FBF0F911F912F913F91DF91A9
:10025C00CF91FF91EF9178940895E8EDF2E004913D
:10026C00088331E03093092848DF0F910FBF0F91BD
:10027C001F912F913F91DF91CF91FF91EF910895B5
:10028C000F930FEF01B90F9108952F932FB72F9361
:10029C001F9320E010E01A95F1F72A95D9F71F91DA
:1002AC002F912FBF2F91089503D761C1958909D341
:1002BC000191110D2B4529398115D7CB192F595D7A
:1002CC004D31917D892D4FA7A55F856341424344F4
:1002DC0045464748494A4B4C4D4E4F50515253544A
:0802EC0055565758595A2F00CE
:00000001FF
