:020000020000FC
:0200000046C0F8
:10008C001FC0E0E0F8E20EE0019306E101930AE103
:10009C0001930CE10193409A48980EE108B90FEFD7
:1000AC00009300040FEF01B98098009190040B604D
:1000BC000093900478948AD0000000003FD0FCCFCD
:1000CC00F8940FB70F9302B30170003059F0909B66
:1000DC00FECF0F910FBF009189040160009389043A
:1000EC00789418959099FECFD2D0989987D0EFCF6D
:1000FC0000918904016000938904789418950F93FA
:10010C00009107280154009307280F9108950F932D
:10011C0000910728015400930728009106280154E8
:10012C00009306280091052801540093052800919E
:10013C0004280154009304280F9108954F933F9382
:10014C003FB73F932F931F930F93EF93FF933091F0
:10015C00032839B9E2ECF2E010E020910728E20F15
:10016C00F11F0491009304048DD03091022839B909
:10017C00E2ECF2E020910628E20FF11F04910093CB
:10018C00040480D03091012839B9E2ECF2E02091DE
:10019C000528E20FF11F04910093040473D03091F1
:1001AC00002839B9E2ECF2E020910428E20FF11FAB
:1001BC0004910093040466D0FF91EF910F911F916D
:1001CC002F913F913FBF3F914F910895ECEDF2E09D
:1001DC0000E0159103951F32E1F70A95009308286A
:1001EC0004E000930928ECEDF2E0C4E0D8E214E05E
:1001FC00059109931A95E1F78ADF0895F894EF9326
:10020C00FF93CF93DF933F932F931F930F930FB7CE
:10021C000F93ECEDF2E02091092810E0E20FF11FB2
:10022C00C4E0D8E213E0098109931A95E1F7209113
:10023C00082830910928321790F433953093092807
:10024C00059108835CDF0F910FBF0F911F912F91C8
:10025C003F91DF91CF91FF91EF9178940895ECED60
:10026C00F2E00491088331E03093092848DF0F91C4
:10027C000FBF0F911F912F913F91DF91CF91FF9164
:10028C00EF9108950F930FEF01B90F9108952F93EC
:10029C002FB72F931F9320E010E01A95F1F72A95B2
:1002AC00D9F71F912F912FBF2F91089503D761C1BB
:1002BC00958909D30191110D2B4529398115D7CB7E
:1002CC00192F595D4D31917D892D4FA7A55F856300
:1002DC004142434445464748494A4B4C4D4E4F508A
:0C02EC005152535455565758595A2F0080
:00000001FF
