:020000020000FC
:0200000046C0F8
:10008C001FC0E0E0F8E20EE0019306E101930AE103
:10009C0001930CE10193409A48980EE108B90FEFD7
:1000AC00009300040FEF01B98098009190040B604D
:1000BC0000939004789488D0000000003DD0FCCFD1
:1000CC00F8940FB70F9302B30170003051F0D6D0F3
:1000DC00909BFDCF0F910FBF01E0009389047894A2
:1000EC001895CCD09099FDCF80D0F1CF0F910FBF48
:1000FC0001E000938904789418950F9300910728D8
:10010C000154009307280F9108950F93009107282D
:10011C0001540093072800910628015400930628E7
:10012C0000910528015400930528009104280154DE
:10013C00009304280F9108954F933F933FB73F933B
:10014C002F931F930F93EF93FF933091032839B99B
:10015C00E0EBF2E010E020910728E20FF11F049190
:10016C000093040486D03091022839B9E0EBF2E018
:10017C0020910628E20FF11F04910093040479D01A
:10018C003091012839B9E0EBF2E020910528E20F1B
:10019C00F11F0491009304046CD03091002839B9FC
:1001AC00E0EBF2E020910428E20FF11F04910093A0
:1001BC0004045FD0FF91EF910F911F912F913F910C
:1001CC003FBF3F914F91089508E00093082804E049
:1001DC0000930928EAECF2E0C4E0D8E214E00591BF
:1001EC0009931A95E1F791DF0895F894EF93FF9333
:1001FC00CF93DF933F932F931F930F930FB70F93CF
:10020C00EAECF2E02091092810E0E20FF11FC4E0C3
:10021C00D8E213E0098109931A95E1F72091082897
:10022C0030910928321790F43395309309280591B1
:10023C00088363DF0F910FBF0F911F912F913F9197
:10024C00DF91CF91FF91EF9178940895EAECF2E071
:10025C000491088331E0309309284FDF0F910FBFD1
:10026C000F911F912F913F91DF91CF91FF91EF91C2
:10027C0008950F930FEF01B90F9108952F932FB796
:10028C002F931F9320E010E01A95F1F72A95D9F7D8
:10029C001F912F912FBF2F91089503D761C195897D
:1002AC0009D30191110D2B4529398115D7CB192F64
:1002BC00595D4D31917D892D4FA7A55F85634445CF
:0602CC00455A4E55545343
:00000001FF
