:020000020000FC
:0200000046C0F8
:10008C0025C0E0E0F8E20EE0019306E101930AE1FD
:10009C0001930CE10193409A48980EE108B90FEFD7
:1000AC00009300040FEF01B980988298009190049E
:1000BC000B6000939004009192040B6000939204E7
:1000CC00789439D00000000001D1FCCFF8940FB720
:1000DC000F93909B0DC0929B1CC0909BFECF0F91D9
:1000EC000FBF0091890401600093890478941895DE
:1000FC009099FECF38D1989939D0EFCF929BEDCF14
:10010C000F910FBF009189040460009389047894C7
:10011C0018959299FECF27D19A996CD0EFCF009178
:10012C0089040160009389040091890404600093A0
:10013C00890478941895E4EBF3E000E015910395AD
:10014C001F32E1F70A950093082801E00093092873
:10015C0004E000930A28E4EBF3E0C4E0D8E214E0F6
:10016C00059109931A95E1F79AD00895F894EF93B5
:10017C00FF93CF93DF933F932F931F930F930FB75F
:10018C000F93E4EBF3E020910A2810E0E20FF11F4B
:10019C00C4E0D8E213E0098109931A95E1F72091A4
:1001AC00082830910A28321790F4339530930A2896
:1001BC00059108836CD00F910FBF0F911F912F9158
:1001CC003F91DF91CF91FF91EF9178940895E4EBFB
:1001DC00F3E00491088331E030930A2858D00F9152
:1001EC000FBF0F911F912F913F91DF91CF91FF91F5
:1001FC00EF910895F894EF93FF93CF93DF933F9390
:10020C002F931F930F930FB70F93E4EBF3E0209111
:10021C00092810E0E20FF11FC7E0D8E213E00A91C1
:10022C0009831A95E1F721E0309109282317A8F0EA
:10023C003A9530930928049110E0E150F10B0883B2
:10024C0026D00F910FBF0F911F912F913F91DF91EE
:10025C00CF91FF91EF9178940895E4EBF3E000E0F7
:10026C00109108281A95E10FF01F0491088331E0D2
:10027C00309309280CD00F910FBF0F911F912F9124
:10028C003F91DF91CF91FF91EF91789408950F9367
:10029C00009107280154009307280F9108950F939C
:1002AC000091072801540093072800910628015457
:1002BC00009306280091052801540093052800910D
:1002CC0004280154009304280F9108954F933F93F1
:1002DC003FB73F932F931F930F93EF93FF9330915F
:1002EC00032839B9EAE9F3E010E020910728E20F7E
:1002FC00F11F04910093040431D03091022839B9D4
:10030C00EAE9F3E020910628E20FF11F0491009333
:10031C00040424D03091012839B9EAE9F3E02091A2
:10032C000528E20FF11F04910093040417D03091BB
:10033C00002839B9EAE9F3E020910428E20FF11F13
:10034C000491009304040AD0FF91EF910F911F9137
:10035C002F913F913FBF3F914F9108950F930FEF16
:10036C0001B90F9108952F932FB72F931F9320E06E
:10037C0010E01A95F1F72A95D9F71F912F912FBFFD
:10038C002F91089503D761C1958909D30191110D5E
:10039C002B4529390B15D7CB192F595D4D31917D33
:1003AC00892D4FA7A55F8563414243444546474885
:1003BC00494A4B4C4D4E4F50515253545556575829
:0403CC00595A2F004B
:00000001FF
